:1000000009EF0DF07D52D8A407EF00F01200FF0EAB
:1000100000000000000000000000000000000000E0
:1000200000000000000000000000000000000000D0
:1000300000000000000000000000000000000000C0
:1000400000000000000000000000000000000000B0
:1000500000000000000000000000000000000000A0
:1000600000000000000000000000FF0FD8A408EF0F
:1000700000F000007D2E07EF00F01200FA0E7D6EFA
:1000800002EC00F0FA0E7D6E02EC00F0FA0E7D6ECE
:1000900002EC00F0FA0E7D6E02EC00F07C2EEED742
:1000A0001200006A016A026A036A026A036AA251C4
:1000B000A603F350006EF450016EA351A603F35053
:1000C0000126F4500222D8B0032AA451A603F3500B
:1000D0000226F4500322A551A603F3500326A25191
:1000E000A703F3500126F4500222D8B0032AA351EB
:1000F000A703F3500226F4500322A451A703F350A0
:100100000326A251A803F3500226F4500322A35160
:10011000A803F3500326A251A903F35003261200AB
:10012000020E806E806A82AEFED71200020E826ED0
:10013000AA51FF0B816E010E806E806AAB51AA6FCF
:10014000AC51AB6FAD51AC6FAD6B010E826EAA516D
:10015000FF0B816E010E806E806AAB51AA6FAC51AD
:10016000AB6FAD51AC6FAD6B826AAA51FF0B816E64
:10017000010E806E806A1200050E826EAA51FF0B7E
:10018000816E010E806E806AAB51AA6FAC51AB6F6D
:10019000AD51AC6FAD6B040E826EAA51FF0B816E38
:1001A000010E806E806AAB51AA6FAC51AB6FAD513E
:1001B000AC6FAD6B030E826EAA51FF0B816E010E08
:1001C000806E806A1200070E826EAA51FF0B816E4C
:1001D000010E806E806AAB51AA6FAB6B060E826E09
:1001E000AA51FF0B816E010E806E806A1200090E0B
:1001F000826EAA51FF0B816E010E806E806AAB5138
:10020000AA6FAB6B080E826EAA510F0B816E010EA6
:10021000806E806A12000A0E826EAAA103D0010EBF
:10022000816E01D0816A010E806E806A12009D513C
:10023000A26F9E51A36F9F51A46FA051A56FA00EF6
:10024000A66FA76BA86BA96B51EC00F000507C6EF9
:1002500001507D6E02507E6E03507F6E99517C2658
:100260009A517D229B517E229C517F227C50AA6F05
:100270007D50AB6F7E50AC6F7F50AD6FBCEC00F02B
:100280009151AA6F9251AB6F9351AC6F9451AD6F76
:1002900096EC00F09751AA6F9851AB6FE3EC00F029
:1002A0009551AA6F9651AB6FF7EC00F0A15304E0A3
:1002B000AA810BEC01F003D0AA910BEC01F090ECB9
:1002C00000F01200AA6BAB6BAC6BAD6BBCEC00F03A
:1002D0009151AA6F9251AB6F9351AC6F9451AD6F26
:1002E00096EC00F09751AA6F9851AB6FE3EC00F0D9
:1002F0009551AA6F9651AB6FF7EC00F0AA910BECF9
:1003000001F090EC00F01200070EC16E926A936A41
:10031000800E946E806A816A826A046A056A030E9E
:100320007C6E3EEC00F0066A2C0E076E010E086E25
:10033000096AF00E0C6E0D6A0A6A0B6A0E6AC20E2A
:100340000F6E010E106E116AF00E146E156AA00E7B
:10035000126E136A166A580E176E020E186E196A1C
:100360000B0E1C6E1D6AA00E1A6E1B6A1E6A1F6A97
:10037000206A216A3F0E226E236A246A256A266A51
:10038000A00E276E6C0E286E020E296E2A6A1B0EB6
:100390002D6E2E6A1F0E2B6E2C6A0E0E2F6E306A7B
:1003A000316A326A870E336E346A356A366A376A62
:1003B000386AC20E396E010E3A6E3B6A1B0E3E6EF3
:1003C0003F6A1F0E3C6E3D6A0E0E406E416A426AE5
:1003D000436A870E446E456A466A476A486A400E19
:1003E000496E9A0E4A6E020E4B6E4C6A060E4F6EA6
:1003F000506A2D0E4D6E4E6A330E516E526A536A1C
:10040000546A860E556E566A576A586A596A5A6A0D
:100410009E0E5B6E020E5C6E5D6A1A0E606E616A05
:100420004F0E5E6E5F6A490E626E636A646A656A49
:100430004C0E666E676A686A696A6A6A940E6B6EC9
:10044000AE0E6C6E020E6D6E6E6A0F0E716E726A7B
:100450002F0E6F6E706A0A0E736E746A756A766A12
:10046000510E776E786A796A7A6A7B6A800E00012B
:10047000806F7D0E816F020E826F836B2E0E866FF2
:10048000876B2B0E846F856B1B0E886F896B8A6B55
:100490008B6B820E8C6F8D6B8E6B8F6B010E906FE2
:1004A000046AA00E04601BD00D500001986F0C5020
:1004B000976F0B50966F0A50956F0950946F0850C4
:1004C000936F0750926F0650916F62EC01F00A0E25
:1004D0007D6E02EC00F00A4A0B2A042AE2D7030ED2
:1004E0007C6E3EEC00F015500001986F1450976F31
:1004F0001350966F1250956F1150946F1050936F68
:100500000F50926F0E50916F62EC01F0020E7C6EF4
:100510003EEC00F026500001A16F2550A06F245042
:100520009F6F23509E6F22509D6F21509C6F2050D3
:100530009B6F1F509A6F1E50996F1D50986F1C50E3
:10054000976F1B50966F1A50956F1950946F1850F3
:10055000936F1750926F1650916F17EC01F07D68F2
:1005600002EC00F0E00E166E5E0E176E020E186EB4
:10057000196A15500001986F1450976F1350966FB9
:100580001250956F1150946F1050936F0F50926FDF
:100590000E50916F62EC01F026500001A16F2550C2
:1005A000A06F24509F6F23509E6F22509D6F21504B
:1005B0009C6F20509B6F1F509A6F1E50996F1D505B
:1005C000986F1C50976F1B50966F1A50956F19506B
:1005D000946F1850936F1750926F1650916F17ECDD
:1005E00001F07D6802EC00F0C00E166E650E176E0D
:1005F000020E186E196A15500001986F1450976F0B
:100600001350966F1250956F1150946F1050936F56
:100610000F50926F0E50916F62EC01F02650000166
:10062000A16F2550A06F24509F6F23509E6F2250C2
:100630009D6F21509C6F20509B6F1F509A6F1E50D2
:10064000996F1D50986F1C50976F1B50966F1A50E2
:10065000956F1950946F1850936F1750926F1650F2
:10066000916F17EC01F0020E7C6E3EEC00F015501D
:100670000001986F1450976F1350966F1250956F3A
:100680001150946F1050936F0F50926F0E50916FE6
:1006900062EC01F0020E7C6E3EEC00F0046A050E86
:1006A000046058D048500001A16F4750A06F4650D9
:1006B0009F6F45509E6F44509D6F43509C6F4250BA
:1006C0009B6F41509A6F4050996F3F50986F3E50CA
:1006D000976F3D50966F3C50956F3B50946F3A50DA
:1006E000936F3950926F3850916F17EC01F037507B
:1006F0000001A16F3650A06F35509F6F34509E6F30
:1007000033509D6F32509C6F31509B6F30509A6FB9
:100710002F50996F2E50986F2D50976F2C50966FC9
:100720002B50956F2A50946F2950936F2850926FD9
:100730002750916F17EC01F0200E2726000E28227B
:10074000000E2922000E2A22640E7D6E02EC00F0BB
:10075000042AA5D71E0E056E046A050E046097D004
:1007600059500001A16F5850A06F57509F6F5650BD
:100770009E6F55509D6F54509C6F53509B6F5250BD
:100780009A6F5150996F5050986F4F50976F4E50CD
:10079000966F4D50956F4C50946F4B50936F4A50DD
:1007A000926F4950916F17EC01F02E0E4926000E02
:1007B0004A22000E4B22000E4C2205507D6E02ECA8
:1007C00000F059500001A16F5850A06F57509F6F13
:1007D00056509E6F55509D6F54509C6F53509B6F59
:1007E00052509A6F5150996F5050986F4F50976F69
:1007F0004E50966F4D50956F4C50946F4B50936F79
:100800004A50926F4950916F17EC01F02E0E492615
:10081000000E4A22000E4B22000E4C2205507D6E27
:1008200002EC00F059500001A16F5850A06F5750D2
:100830009F6F56509E6F55509D6F54509C6F5350F4
:100840009B6F52509A6F5150996F5050986F4F5004
:10085000976F4E50966F4D50956F4C50946F4B5014
:10086000936F4A50926F4950916F17EC01F05C0EF4
:10087000495E000E4A5A000E4B5A000E4C5A055063
:100880007D6E02EC00F00F0E0526042A66D7140ECA
:10089000056E046A050E046097D05C0E4926000EB2
:1008A0004A22000E4B22000E4C2259500001A16F2B
:1008B0005850A06F57509F6F56509E6F55509D6F68
:1008C00054509C6F53509B6F52509A6F5150996F78
:1008D0005050986F4F50976F4E50966F4D50956F88
:1008E0004C50946F4B50936F4A50926F4950916F98
:1008F00017EC01F02E0E495E000E4A5A000E4B5ABC
:10090000000E4C5A05507D6E02EC00F0595000016B
:10091000A16F5850A06F57509F6F56509E6F555003
:100920009D6F54509C6F53509B6F52509A6F515013
:10093000996F5050986F4F50976F4E50966F4D5023
:10094000956F4C50946F4B50936F4A50926F495033
:10095000916F17EC01F02E0E495E000E4A5A000E00
:100960004B5A000E4C5A05507D6E02EC00F0595067
:100970000001A16F5850A06F57509F6F56509E6F47
:1009800055509D6F54509C6F53509B6F52509A6FAF
:100990005150996F5050986F4F50976F4E50966FBF
:1009A0004D50956F4C50946F4B50936F4A50926FCF
:1009B0004950916F17EC01F005507D6E02EC00F08C
:1009C0000F0E0526042A66D7960E056E046A030EDE
:1009D000046097D059500001A16F5850A06F575034
:1009E0009F6F56509E6F55509D6F54509C6F535043
:1009F0009B6F52509A6F5150996F5050986F4F5053
:100A0000976F4E50966F4D50956F4C50946F4B5062
:100A1000936F4A50926F4950916F17EC01F02E0E70
:100A20004926000E4A22000E4B22000E4C22055091
:100A30007D6E02EC00F059500001A16F5850A06F7C
:100A400057509F6F56509E6F55509D6F54509C6FDE
:100A500053509B6F52509A6F5150996F5050986FEE
:100A60004F50976F4E50966F4D50956F4C50946FFE
:100A70004B50936F4A50926F4950916F17EC01F0B1
:100A80002E0E4926000E4A22000E4B22000E4C224A
:100A900005507D6E02EC00F059500001A16F5850D6
:100AA000A06F57509F6F56509E6F55509D6F54507A
:100AB0009C6F53509B6F52509A6F5150996F50508A
:100AC000986F4F50976F4E50966F4D50956F4C509A
:100AD000946F4B50936F4A50926F4950916F17EC3F
:100AE00001F05C0E495E000E4A5A000E4B5A000E91
:100AF0004C5A05507D6E02EC00F03C0E055E042A57
:100B000066D76A500001A16F6950A06F68509F6F4F
:100B100067509E6F66509D6F65509C6F64509B6FD1
:100B200063509A6F6250996F6150986F6050976FE1
:100B30005F50966F5E50956F5D50946F5C50936FF1
:100B40005B50926F5A50916F17EC01F07B5000018F
:100B5000A16F7A50A06F79509F6F78509E6F775039
:100B60009D6F76509C6F75509B6F74509A6F735049
:100B7000996F7250986F7150976F7050966F6F5059
:100B8000956F6E50946F6D50936F6C50926F6B5069
:100B9000916F17EC01F00A0E056E046A020E0460F4
:100BA00097D059500001A16F5850A06F57509F6FB8
:100BB00056509E6F55509D6F54509C6F53509B6F75
:100BC00052509A6F5150996F5050986F4F50976F85
:100BD0004E50966F4D50956F4C50946F4B50936F95
:100BE0004A50926F4950916F17EC01F02E0E492632
:100BF000000E4A22000E4B22000E4C2205507D6E44
:100C000002EC00F059500001A16F5850A06F5750EE
:100C10009F6F56509E6F55509D6F54509C6F535010
:100C20009B6F52509A6F5150996F5050986F4F5020
:100C3000976F4E50966F4D50956F4C50946F4B5030
:100C4000936F4A50926F4950916F17EC01F02E0E3E
:100C50004926000E4A22000E4B22000E4C2205505F
:100C60007D6E02EC00F059500001A16F5850A06F4A
:100C700057509F6F56509E6F55509D6F54509C6FAC
:100C800053509B6F52509A6F5150996F5050986FBC
:100C90004F50976F4E50966F4D50956F4C50946FCC
:100CA0004B50936F4A50926F4950916F17EC01F07F
:100CB0005C0E495E000E4A5A000E4B5A000E4C5A0A
:100CC00005507D6E02EC00F0280E0526042A66D73A
:100CD000500E5A6E9E0E5B6E020E5C6E5D6A4B0E7F
:100CE0005E6E5F6A600E6B26090E6C22000E6D222E
:100CF000000E6E22350E6F6E706A6A500001A16F91
:100D00006950A06F68509F6F67509E6F66509D6FCF
:100D100065509C6F64509B6F63509A6F6250996FDF
:100D20006150986F6050976F5F50966F5E50956FEF
:100D30005D50946F5C50936F5B50926F5A50916FFF
:100D400017EC01F07B500001A16F7A50A06F795031
:100D50009F6F78509E6F77509D6F76509C6F755047
:100D60009B6F74509A6F7350996F7250986F715057
:100D7000976F7050966F6F50956F6E50946F6D5067
:100D8000936F6C50926F6B50916F17EC01F059504C
:100D90000001A16F5850A06F57509F6F56509E6F23
:100DA00055509D6F54509C6F53509B6F52509A6F8B
:100DB0005150996F5050986F4F50976F4E50966F9B
:100DC0004D50956F4C50946F4B50936F4A50926FAB
:100DD0004950916F17EC01F02E0E4926000E4A2261
:100DE000000E4B22000E4C2205507D6E02EC00F0EE
:100DF00059500001A16F5850A06F57509F6F565027
:100E00009E6F55509D6F54509C6F53509B6F525026
:100E10009A6F5150996F5050986F4F50976F4E5036
:100E2000966F4D50956F4C50946F4B50936F4A5046
:100E3000926F4950916F17EC01F02E0E4926000E6B
:100E40004A22000E4B22000E4C2205507D6E02EC11
:100E500000F059500001A16F5850A06F57509F6F7C
:100E600056509E6F55509D6F54509C6F53509B6FC2
:100E700052509A6F5150996F5050986F4F50976FD2
:100E80004E50966F4D50956F4C50946F4B50936FE2
:100E90004A50926F4950916F17EC01F05C0E495E19
:100EA000000E4A5A000E4B5A000E4C5A05507D6EE9
:100EB00002EC00F0280E0526400E5A6EAE0E5B6E58
:100EC000020E5C6E5D6A530E5E6E5F6A600E6B268C
:100ED000090E6C22000E6D22000E6E226A50000177
:100EE000A16F6950A06F68509F6F67509E6F6650EA
:100EF0009D6F65509C6F64509B6F63509A6F6250FA
:100F0000996F6150986F6050976F5F50966F5E5009
:100F1000956F5D50946F5C50936F5B50926F5A5019
:100F2000916F17EC01F07B500001A16F7A50A06F18
:100F300079509F6F78509E6F77509D6F76509C6F61
:100F400075509B6F74509A6F7350996F7250986F71
:100F50007150976F7050966F6F50956F6E50946F81
:100F60006D50936F6C50926F6B50916F17EC01F056
:100F700059500001A16F5850A06F57509F6F5650A5
:100F80009E6F55509D6F54509C6F53509B6F5250A5
:100F90009A6F5150996F5050986F4F50976F4E50B5
:100FA000966F4D50956F4C50946F4B50936F4A50C5
:100FB000926F4950916F17EC01F02E0E4926000EEA
:100FC0004A22000E4B22000E4C2205507D6E02EC90
:100FD00000F059500001A16F5850A06F57509F6FFB
:100FE00056509E6F55509D6F54509C6F53509B6F41
:100FF00052509A6F5150996F5050986F4F50976F51
:101000004E50966F4D50956F4C50946F4B50936F60
:101010004A50926F4950916F17EC01F02E0E4926FD
:10102000000E4A22000E4B22000E4C2205507D6E0F
:1010300002EC00F059500001A16F5850A06F5750BA
:101040009F6F56509E6F55509D6F54509C6F5350DC
:101050009B6F52509A6F5150996F5050986F4F50EC
:10106000976F4E50966F4D50956F4C50946F4B50FC
:10107000936F4A50926F4950916F17EC01F05C0EDC
:10108000495E000E4A5A000E4B5A000E4C5A05504B
:101090007D6E02EC00F0800E5A6EBE0E5B6E020E8C
:1010A0005C6E5D6A610E6B26090E6C22000E6D226D
:1010B000000E6E22360E6F6E706A6A500001A16FCC
:1010C0006950A06F68509F6F67509E6F66509D6F0C
:1010D00065509C6F64509B6F63509A6F6250996F1C
:1010E0006150986F6050976F5F50966F5E50956F2C
:1010F0005D50946F5C50936F5B50926F5A50916F3C
:1011000017EC01F07B500001A16F7A50A06F79506D
:101110009F6F78509E6F77509D6F76509C6F755083
:101120009B6F74509A6F7350996F7250986F715093
:10113000976F7050966F6F50956F6E50946F6D50A3
:10114000936F6C50926F6B50916F17EC01F0C80E5B
:101150007D6E02EC00F0C00E5A6ECE0E5B6E020E7B
:101160005C6E5D6A200E606E616A540E5E6E5F6A30
:10117000480E626E636A646A656A4B0E666E676AE1
:10118000686A696A600E6B26090E6C22000E6D2279
:10119000000E6E227B500001A16F7A50A06F795033
:1011A0009F6F78509E6F77509D6F76509C6F7550F3
:1011B0009B6F74509A6F7350996F7250986F715003
:1011C000976F7050966F6F50956F6E50946F6D5013
:1011D000936F6C50926F6B50916F17EC01F06A50E7
:1011E0000001A16F6950A06F68509F6F67509E6F9C
:1011F00066509D6F65509C6F64509B6F63509A6FF3
:101200006250996F6150986F6050976F5F50966F02
:101210005E50956F5D50946F5C50936F5B50926F12
:101220005A50916F17EC01F0320E7D6E02EC00F017
:10123000E00E6B6E130E6C6E070E6D6E6E6A150E01
:10124000716E726A3E0E6F6E706A040E736E746A0F
:10125000756A766A500E776E786A796A7A6A7B5018
:101260000001A16F7A50A06F79509F6F78509E6FE8
:1012700077509D6F76509C6F75509B6F74509A6F2E
:101280007350996F7250986F7150976F7050966F3E
:101290006F50956F6E50946F6D50936F6C50926F4E
:1012A0006B50916F17EC01F06A500001A16F69500B
:1012B000A06F68509F6F67509E6F66509D6F65501E
:1012C0009C6F64509B6F63509A6F6250996F61502E
:1012D000986F6050976F5F50966F5E50956F5D503E
:1012E000946F5C50936F5B50926F5A50916F17ECF4
:1012F00001F0046A320E0460BAD0E00E6B6E130E79
:101300006C6E070E6D6E6E6AE00E5A6E210E5B6E8D
:10131000080E5C6E5D6A7B500001A16F7A50A06F71
:1013200079509F6F78509E6F77509D6F76509C6F6D
:1013300075509B6F74509A6F7350996F7250986F7D
:101340007150976F7050966F6F50956F6E50946F8D
:101350006D50936F6C50926F6B50916F17EC01F062
:101360006A500001A16F6950A06F68509F6F67506D
:101370009E6F66509D6F65509C6F64509B6F63506D
:101380009A6F6250996F6150986F6050976F5F507D
:10139000966F5E50956F5D50946F5C50936F5B508D
:1013A000926F5A50916F17EC01F0050E7D6E02ECB2
:1013B00000F0C00E6B6E060E6C6E070E6D6E6E6AE0
:1013C000C00E5A6ECE0E5B6E020E5C6E5D6A7B5076
:1013D0000001A16F7A50A06F79509F6F78509E6F77
:1013E00077509D6F76509C6F75509B6F74509A6FBD
:1013F0007350996F7250986F7150976F7050966FCD
:101400006F50956F6E50946F6D50936F6C50926FDC
:101410006B50916F17EC01F06A500001A16F695099
:10142000A06F68509F6F67509E6F66509D6F6550AC
:101430009C6F64509B6F63509A6F6250996F6150BC
:10144000986F6050976F5F50966F5E50956F5D50CC
:10145000946F5C50936F5B50926F5A50916F17EC82
:1014600001F0050E7D6E02EC00F0042A43D7000166
:101470009051A16F8F51A06F8E519F6F8D519E6FB4
:101480008C519D6F8B519C6F8A519B6F89519A6FC4
:101490008851996F8751986F8651976F8551966FD4
:1014A0008451956F8351946F8251936F8151926FE4
:1014B0008051916F17EC01F0046A1E0E0460BAD0DF
:1014C000E00E6B6E130E6C6E070E6D6E6E6AE00EA4
:1014D0005A6E210E5B6E080E5C6E5D6A7B500001D9
:1014E000A16F7A50A06F79509F6F78509E6F7750A0
:1014F0009D6F76509C6F75509B6F74509A6F7350B0
:10150000996F7250986F7150976F7050966F6F50BF
:10151000956F6E50946F6D50936F6C50926F6B50CF
:10152000916F17EC01F06A500001A16F6950A06F34
:1015300068509F6F67509E6F66509D6F65509C6F9F
:1015400064509B6F63509A6F6250996F6150986FAF
:101550006050976F5F50966F5E50956F5D50946FBF
:101560005C50936F5B50926F5A50916F17EC01F083
:10157000050E7D6E02EC00F0C00E6B6E060E6C6EFA
:10158000070E6D6E6E6AC00E5A6ECE0E5B6E020E48
:101590005C6E5D6A7B500001A16F7A50A06F79503C
:1015A0009F6F78509E6F77509D6F76509C6F7550EF
:1015B0009B6F74509A6F7350996F7250986F7150FF
:1015C000976F7050966F6F50956F6E50946F6D500F
:1015D000936F6C50926F6B50916F17EC01F06A50E3
:1015E0000001A16F6950A06F68509F6F67509E6F98
:1015F00066509D6F65509C6F64509B6F63509A6FEF
:101600006250996F6150986F6050976F5F50966FFE
:101610005E50956F5D50946F5C50936F5B50926F0E
:101620005A50916F17EC01F0050E7D6E02EC00F040
:10163000042A43D7200E276E6D0E286E020E296EE7
:101640002A6A046A050E04607DD048500001A16F2B
:101650004750A06F46509F6F45509E6F44509D6FFE
:1016600043509C6F42509B6F41509A6F4050996F0E
:101670003F50986F3E50976F3D50966F3C50956F1E
:101680003B50946F3A50936F3950926F3850916F2E
:1016900017EC01F037500001A16F3650A06F3550A4
:1016A0009F6F34509E6F33509D6F32509C6F3150FE
:1016B0009B6F30509A6F2F50996F2E50986F2D500E
:1016C000976F2C50966F2B50956F2A50946F29501E
:1016D000936F2850926F2750916F17EC01F0000123
:1016E0009051A16F8F51A06F8E519F6F8D519E6F42
:1016F0008C519D6F8B519C6F8A519B6F89519A6F52
:101700008851996F8751986F8651976F8551966F61
:101710008451956F8351946F8251936F8151926F71
:101720008051916F17EC01F0200E275E000E285AB1
:10173000000E295A000E2A5A320E7D6E02EC00F07D
:10174000042A80D7A00E276E6C0E286E020E296E1A
:101750002A6A046A050E04607DD048500001A16F1A
:101760004750A06F46509F6F45509E6F44509D6FED
:1017700043509C6F42509B6F41509A6F4050996FFD
:101780003F50986F3E50976F3D50966F3C50956F0D
:101790003B50946F3A50936F3950926F3850916F1D
:1017A00017EC01F037500001A16F3650A06F355093
:1017B0009F6F34509E6F33509D6F32509C6F3150ED
:1017C0009B6F30509A6F2F50996F2E50986F2D50FD
:1017D000976F2C50966F2B50956F2A50946F29500D
:1017E000936F2850926F2750916F17EC01F0000112
:1017F0009051A16F8F51A06F8E519F6F8D519E6F31
:101800008C519D6F8B519C6F8A519B6F89519A6F40
:101810008851996F8751986F8651976F8551966F50
:101820008451956F8351946F8251936F8151926F60
:101830008051916F17EC01F0200E2726000E282210
:10184000000E2922000E2A22320E7D6E02EC00F0DC
:10185000042A80D77D6802EC00F048500001A16F97
:101860004750A06F46509F6F45509E6F44509D6FEC
:1018700043509C6F42509B6F41509A6F4050996FFC
:101880003F50986F3E50976F3D50966F3C50956F0C
:101890003B50946F3A50936F3950926F3850916F1C
:1018A00017EC01F0180E0001886F896B8A6B8B6B47
:1018B000AB0E806F7D0E816F020E826F836B2E0EDA
:1018C000846F856B9051A16F8F51A06F8E519F6F68
:1018D0008D519E6F8C519D6F8B519C6F8A519B6F68
:1018E00089519A6F8851996F8751986F8651976F78
:1018F0008551966F8451956F8351946F8251936F88
:101900008151926F8051916F17EC01F05950000195
:10191000A16F5850A06F57509F6F56509E6F5550F3
:101920009D6F54509C6F53509B6F52509A6F515003
:10193000996F5050986F4F50976F4E50966F4D5013
:10194000956F4C50946F4B50936F4A50926F495023
:10195000916F17EC01F0C80E7D6E02EC00F0D90E0D
:101960000001806F7D0E816F020E826F836B3C0ED3
:10197000846F856B9051A16F8F51A06F8E519F6FB7
:101980008D519E6F8C519D6F8B519C6F8A519B6FB7
:1019900089519A6F8851996F8751986F8651976FC7
:1019A0008551966F8451956F8351946F8251936FD7
:1019B0008151926F8051916F17EC01F059500001E5
:1019C000A16F5850A06F57509F6F56509E6F555043
:1019D0009D6F54509C6F53509B6F52509A6F515053
:1019E000996F5050986F4F50976F4E50966F4D5063
:1019F000956F4C50946F4B50936F4A50926F495073
:101A0000916F17EC01F00A0E7C6E3EEC00F093EF44
:061A100001F084EF01F07B
:00000001FF